{
  "contractName": "Conference",
  "abi": [
    {
      "constant": true,
      "inputs": [
        {
          "name": "addr",
          "type": "address"
        },
        {
          "name": "roleName",
          "type": "string"
        }
      ],
      "name": "checkRole",
      "outputs": [],
      "payable": false,
      "stateMutability": "view",
      "type": "function"
    },
    {
      "constant": true,
      "inputs": [
        {
          "name": "addr",
          "type": "address"
        },
        {
          "name": "roleName",
          "type": "string"
        }
      ],
      "name": "hasRole",
      "outputs": [
        {
          "name": "",
          "type": "bool"
        }
      ],
      "payable": false,
      "stateMutability": "view",
      "type": "function"
    },
    {
      "constant": true,
      "inputs": [],
      "name": "title",
      "outputs": [
        {
          "name": "",
          "type": "bytes32"
        }
      ],
      "payable": false,
      "stateMutability": "view",
      "type": "function"
    },
    {
      "constant": false,
      "inputs": [
        {
          "name": "addr",
          "type": "address"
        },
        {
          "name": "roleName",
          "type": "string"
        }
      ],
      "name": "adminRemoveRole",
      "outputs": [],
      "payable": false,
      "stateMutability": "nonpayable",
      "type": "function"
    },
    {
      "constant": true,
      "inputs": [],
      "name": "id",
      "outputs": [
        {
          "name": "",
          "type": "bytes32"
        }
      ],
      "payable": false,
      "stateMutability": "view",
      "type": "function"
    },
    {
      "constant": false,
      "inputs": [
        {
          "name": "addr",
          "type": "address"
        },
        {
          "name": "roleName",
          "type": "string"
        }
      ],
      "name": "adminAddRole",
      "outputs": [],
      "payable": false,
      "stateMutability": "nonpayable",
      "type": "function"
    },
    {
      "constant": true,
      "inputs": [],
      "name": "ipfsHash",
      "outputs": [
        {
          "name": "",
          "type": "bytes32"
        }
      ],
      "payable": false,
      "stateMutability": "view",
      "type": "function"
    },
    {
      "constant": true,
      "inputs": [],
      "name": "ROLE_ADMIN",
      "outputs": [
        {
          "name": "",
          "type": "string"
        }
      ],
      "payable": false,
      "stateMutability": "view",
      "type": "function"
    },
    {
      "constant": true,
      "inputs": [],
      "name": "year",
      "outputs": [
        {
          "name": "",
          "type": "uint256"
        }
      ],
      "payable": false,
      "stateMutability": "view",
      "type": "function"
    },
    {
      "inputs": [
        {
          "name": "_title",
          "type": "string"
        },
        {
          "name": "_year",
          "type": "uint256"
        },
        {
          "name": "_ipfsHash",
          "type": "bytes32"
        }
      ],
      "payable": false,
      "stateMutability": "nonpayable",
      "type": "constructor"
    },
    {
      "anonymous": false,
      "inputs": [
        {
          "indexed": false,
          "name": "addr",
          "type": "address"
        },
        {
          "indexed": false,
          "name": "roleName",
          "type": "string"
        }
      ],
      "name": "RoleAdded",
      "type": "event"
    },
    {
      "anonymous": false,
      "inputs": [
        {
          "indexed": false,
          "name": "addr",
          "type": "address"
        },
        {
          "indexed": false,
          "name": "roleName",
          "type": "string"
        }
      ],
      "name": "RoleRemoved",
      "type": "event"
    },
    {
      "constant": false,
      "inputs": [
        {
          "name": "addr",
          "type": "address[]"
        }
      ],
      "name": "addAuthors",
      "outputs": [],
      "payable": false,
      "stateMutability": "nonpayable",
      "type": "function"
    },
    {
      "constant": false,
      "inputs": [
        {
          "name": "addr",
          "type": "address[]"
        }
      ],
      "name": "addPCmembers",
      "outputs": [],
      "payable": false,
      "stateMutability": "nonpayable",
      "type": "function"
    },
    {
      "constant": false,
      "inputs": [
        {
          "name": "addr",
          "type": "address"
        }
      ],
      "name": "removePCmember",
      "outputs": [],
      "payable": false,
      "stateMutability": "nonpayable",
      "type": "function"
    },
    {
      "constant": false,
      "inputs": [
        {
          "name": "addr",
          "type": "address"
        }
      ],
      "name": "removeAuthor",
      "outputs": [],
      "payable": false,
      "stateMutability": "nonpayable",
      "type": "function"
    },
    {
      "constant": false,
      "inputs": [
        {
          "name": "x",
          "type": "string"
        }
      ],
      "name": "sendHash",
      "outputs": [],
      "payable": false,
      "stateMutability": "nonpayable",
      "type": "function"
    },
    {
      "constant": true,
      "inputs": [],
      "name": "getHash",
      "outputs": [
        {
          "name": "x",
          "type": "bytes32"
        }
      ],
      "payable": false,
      "stateMutability": "view",
      "type": "function"
    }
  ],
  "bytecode": "0x606060405234156200001057600080fd5b6040516200137c3803806200137c8339810160405280805182019190602001805190602001909190805190602001909190505062000098336040805190810160405280600581526020017f61646d696e000000000000000000000000000000000000000000000000000000815250620001d76401000000000262000d0a176401000000009004565b6020835111151515620000aa57600080fd5b620000ff336040805190810160405280600581526020017f61646d696e000000000000000000000000000000000000000000000000000000815250620001d76401000000000262000d0a176401000000009004565b600283836040518083805190602001908083835b6020831015156200013a578051825260208201915060208101905060208303925062000113565b6001836020036101000a038019825116818451168082178552505050505050905001828152602001925050506020604051808303816000865af115156200018057600080fd5b5050604051805190506001816000191690555081600481905550620001b9836200033d6401000000000262000e5b176401000000009004565b600281600019169055508060038160001916905550505050620003e4565b62000266826000836040518082805190602001908083835b602083101515620002165780518252602082019150602081019050602083039250620001ef565b6001836020036101000a0380198251168184511680821785525050505050509050019150509081526020016040518091039020620003726401000000000262000eea179091906401000000009004565b7fbfec83d64eaa953f2708271a023ab9ee82057f8f3578d548c1a4ba0b5b7004898282604051808373ffffffffffffffffffffffffffffffffffffffff1673ffffffffffffffffffffffffffffffffffffffff16815260200180602001828103825283818151815260200191508051906020019080838360005b83811015620002fd578082015181840152602081019050620002e0565b50505050905090810190601f1680156200032b5780820380516001836020036101000a031916815260200191505b50935050505060405180910390a15050565b600062000349620003d0565b8290506000815114156200036457600060010291506200036c565b602083015191505b50919050565b60018260000160008373ffffffffffffffffffffffffffffffffffffffff1673ffffffffffffffffffffffffffffffffffffffff16815260200190815260200160002060006101000a81548160ff0219169083151502179055505050565b602060405190810160405280600081525090565b610f8880620003f46000396000f3006060604052600436106100db576000357c0100000000000000000000000000000000000000000000000000000000900463ffffffff1680630988ca8c146100e057806315daaa571461015c578063217fe6c6146101955780634a79d50c1461022957806388cee87e1461025a578063af640d0f146102d6578063b25fa92c14610307578063b361a96b14610383578063c623674f146103dd578063d13319c41461040e578063d391014b1461043f578063dfb29935146104cd578063e97193a61461052a578063edad490e14610563578063f3269716146105bd575b600080fd5b34156100eb57600080fd5b61015a600480803573ffffffffffffffffffffffffffffffffffffffff1690602001909190803590602001908201803590602001908080601f016020809104026020016040519081016040528093929190818152602001838380828437820191505050505050919050506105e6565b005b341561016757600080fd5b610193600480803573ffffffffffffffffffffffffffffffffffffffff16906020019091905050610667565b005b34156101a057600080fd5b61020f600480803573ffffffffffffffffffffffffffffffffffffffff1690602001909190803590602001908201803590602001908080601f01602080910402602001604051908101604052809392919081815260200183838082843782019150505050505091905050610727565b604051808215151515815260200191505060405180910390f35b341561023457600080fd5b61023c6107ae565b60405180826000191660001916815260200191505060405180910390f35b341561026557600080fd5b6102d4600480803573ffffffffffffffffffffffffffffffffffffffff1690602001909190803590602001908201803590602001908080601f016020809104026020016040519081016040528093929190818152602001838380828437820191505050505050919050506107b4565b005b34156102e157600080fd5b6102e9610801565b60405180826000191660001916815260200191505060405180910390f35b341561031257600080fd5b610381600480803573ffffffffffffffffffffffffffffffffffffffff1690602001909190803590602001908201803590602001908080601f01602080910402602001604051908101604052809392919081815260200183838082843782019150505050505091905050610807565b005b341561038e57600080fd5b6103db600480803590602001908201803590602001908080602002602001604051908101604052809392919081815260200183836020028082843782019150505050505091905050610854565b005b34156103e857600080fd5b6103f06108ca565b60405180826000191660001916815260200191505060405180910390f35b341561041957600080fd5b6104216108d0565b60405180826000191660001916815260200191505060405180910390f35b341561044a57600080fd5b6104526108da565b6040518080602001828103825283818151815260200191508051906020019080838360005b83811015610492578082015181840152602081019050610477565b50505050905090810190601f1680156104bf5780820380516001836020036101000a031916815260200191505b509250505060405180910390f35b34156104d857600080fd5b610528600480803590602001908201803590602001908080601f01602080910402602001604051908101604052809392919081815260200183838082843782019150505050505091905050610913565b005b341561053557600080fd5b610561600480803573ffffffffffffffffffffffffffffffffffffffff16906020019091905050610929565b005b341561056e57600080fd5b6105bb600480803590602001908201803590602001908080602002602001604051908101604052809392919081815260200183836020028082843782019150505050505091905050610a3a565b005b34156105c857600080fd5b6105d0610b41565b6040518082815260200191505060405180910390f35b610663826000836040518082805190602001908083835b60208310151561062257805182526020820191506020810190506020830392506105fd565b6001836020036101000a0380198251168184511680821785525050505050509050019150509081526020016040518091039020610b4790919063ffffffff16565b5050565b6106a6336040805190810160405280600581526020017f61646d696e0000000000000000000000000000000000000000000000000000008152506105e6565b6106e5816040805190810160405280600881526020017f70636d656d6265720000000000000000000000000000000000000000000000008152506105e6565b610724816040805190810160405280600881526020017f70636d656d626572000000000000000000000000000000000000000000000000815250610b60565b50565b60006107a6836000846040518082805190602001908083835b6020831015156107655780518252602082019150602081019050602083039250610740565b6001836020036101000a0380198251168184511680821785525050505050509050019150509081526020016040518091039020610cb190919063ffffffff16565b905092915050565b60025481565b6107f3336040805190810160405280600581526020017f61646d696e0000000000000000000000000000000000000000000000000000008152506105e6565b6107fd8282610b60565b5050565b60015481565b610846336040805190810160405280600581526020017f61646d696e0000000000000000000000000000000000000000000000000000008152506105e6565b6108508282610d0a565b5050565b60008090505b81518110156108c6576108b9828281518110151561087457fe5b906020019060200201516040805190810160405280600881526020017f70636d656d626572000000000000000000000000000000000000000000000000815250610807565b808060010191505061085a565b5050565b60035481565b6000600354905090565b6040805190810160405280600581526020017f61646d696e00000000000000000000000000000000000000000000000000000081525081565b61091c81610e5b565b6003816000191690555050565b610968336040805190810160405280600581526020017f61646d696e000000000000000000000000000000000000000000000000000000815250610727565b806109ae57506109ad336040805190810160405280600881526020017f70636d656d626572000000000000000000000000000000000000000000000000815250610727565b5b15156109b957600080fd5b6109f8816040805190810160405280600681526020017f617574686f7200000000000000000000000000000000000000000000000000008152506105e6565b610a37816040805190810160405280600681526020017f617574686f720000000000000000000000000000000000000000000000000000815250610b60565b50565b6000610a7b336040805190810160405280600581526020017f61646d696e000000000000000000000000000000000000000000000000000000815250610727565b80610ac15750610ac0336040805190810160405280600881526020017f70636d656d626572000000000000000000000000000000000000000000000000815250610727565b5b1515610acc57600080fd5b600090505b8151811015610b3d57610b308282815181101515610aeb57fe5b906020019060200201516040805190810160405280600681526020017f617574686f720000000000000000000000000000000000000000000000000000815250610d0a565b8080600101915050610ad1565b5050565b60045481565b610b518282610cb1565b1515610b5c57600080fd5b5050565b610bdd826000836040518082805190602001908083835b602083101515610b9c5780518252602082019150602081019050602083039250610b77565b6001836020036101000a0380198251168184511680821785525050505050509050019150509081526020016040518091039020610e8c90919063ffffffff16565b7fd211483f91fc6eff862467f8de606587a30c8fc9981056f051b897a418df803a8282604051808373ffffffffffffffffffffffffffffffffffffffff1673ffffffffffffffffffffffffffffffffffffffff16815260200180602001828103825283818151815260200191508051906020019080838360005b83811015610c72578082015181840152602081019050610c57565b50505050905090810190601f168015610c9f5780820380516001836020036101000a031916815260200191505b50935050505060405180910390a15050565b60008260000160008373ffffffffffffffffffffffffffffffffffffffff1673ffffffffffffffffffffffffffffffffffffffff16815260200190815260200160002060009054906101000a900460ff16905092915050565b610d87826000836040518082805190602001908083835b602083101515610d465780518252602082019150602081019050602083039250610d21565b6001836020036101000a0380198251168184511680821785525050505050509050019150509081526020016040518091039020610eea90919063ffffffff16565b7fbfec83d64eaa953f2708271a023ab9ee82057f8f3578d548c1a4ba0b5b7004898282604051808373ffffffffffffffffffffffffffffffffffffffff1673ffffffffffffffffffffffffffffffffffffffff16815260200180602001828103825283818151815260200191508051906020019080838360005b83811015610e1c578082015181840152602081019050610e01565b50505050905090810190601f168015610e495780820380516001836020036101000a031916815260200191505b50935050505060405180910390a15050565b6000610e65610f48565b829050600081511415610e7e5760006001029150610e86565b602083015191505b50919050565b60008260000160008373ffffffffffffffffffffffffffffffffffffffff1673ffffffffffffffffffffffffffffffffffffffff16815260200190815260200160002060006101000a81548160ff0219169083151502179055505050565b60018260000160008373ffffffffffffffffffffffffffffffffffffffff1673ffffffffffffffffffffffffffffffffffffffff16815260200190815260200160002060006101000a81548160ff0219169083151502179055505050565b6020604051908101604052806000815250905600a165627a7a72305820d0950609a077ff9eab00d0b1613e854d57c764eb2c78dd27bec4f50c080288b80029",
  "source": "pragma solidity ^0.4.21;\n\nimport './RBACWithAdmin.sol';\nimport './utils/BytesUtils.sol';\n\n/**\n * @title Conference\n * @dev A Conference with basic properties (title, year).\n * @dev An unique Id, which is the SHA-256 hash of title and year\n * @dev is used to retrieve the conference in ConferenceRegistry\n * @dev Uses RBAC, which emits events like 'RoleAdded' and 'RoleRemoved'\n * @dev when an Author or PCmember is added.\n */\ncontract Conference is RBACWithAdmin{\n\n\t// ROLE_ADMIN already part of RBAC\n\tstring constant ROLE_AUTHOR = \"author\";\n  \tstring constant ROLE_PCMEMBER = \"pcmember\";\n\n  \t//@devs use bytes32, it can be passed out of contract, bytes not\n  \tbytes32 public id; // Hash of title and year of conference, should be unique\n\tbytes32 public title; // limited length, less than 33 chars\n\tbytes32 public ipfsHash; // to be implemented\n\tuint public year;\n\n\tfunction Conference(string _title, uint _year, bytes32 _ipfsHash) public {\n\t\trequire(bytes(_title).length <= 32);\n\n\t\taddRole(msg.sender, ROLE_ADMIN);\n\t\tid = sha256(_title, _year);\n\t\tyear = _year;\n\t\ttitle = BytesUtils.stringToBytes32(_title); // need title of >= 32 chars, to fit in bytes32\n\t\tipfsHash = _ipfsHash;\n\t}\n\n\n\t/**\n\t * Modifier\n\t */\n\n\tmodifier onlyAdminOrPCmember()\n\t  {\n\t    require(\n\t      hasRole(msg.sender, ROLE_ADMIN) ||\n\t      hasRole(msg.sender, ROLE_PCMEMBER)\n    \t);\n    \t_;\n  \t}\n\n  \tmodifier onlyMember()\n\t  {\n\t    require(\n\t      hasRole(msg.sender, ROLE_ADMIN) ||\n\t      hasRole(msg.sender, ROLE_PCMEMBER) || \n\t      hasRole(msg.sender, ROLE_AUTHOR)\n    \t);\n    \t_;\n  \t}\n\n  \t/**\n  \t * Public functions\n  \t */\n\n  \t/**\n  \t * @dev Allowed for admin/chair or PCmember, emits 'RoleAdded'\n  \t * @param addr the address of the soon-to-be author\n  \t */\n\tfunction addAuthors(address[] addr) onlyAdminOrPCmember public{\n\t\tfor(uint256 i=0;i<addr.length;i++){\n\t\t\taddRole(addr[i], ROLE_AUTHOR);\n\t\t}\n\t}\n\n\t/**\n\t * @dev Only allowed for admin/ chair, emits 'RoleAdded'\n\t * @param addr the address of the soon-to-be PCmember\n\t */\n\tfunction addPCmembers(address[] addr) public {\n\t\tfor(uint256 i=0;i<addr.length;i++){\n\t\t\tadminAddRole(addr[i], ROLE_PCMEMBER);\n\t\t}\n\t}\n\n\t/**\n\t * @param  addr address of member to be removed\n\t * \n\t */\n  \tfunction removePCmember(address addr) onlyAdmin public {\n\t    // revert if the user isn't an pcmember\n\t    checkRole(addr, ROLE_PCMEMBER);\n\n\t    // remove the PCmembers role\n\t    removeRole(addr, ROLE_PCMEMBER);\n  \t}\n\n    function removeAuthor(address addr) onlyAdminOrPCmember public {\n\t    // revert if the user isn't an author\n\t    checkRole(addr, ROLE_AUTHOR);\n\n\t    // remove the authors role\n\t    removeRole(addr, ROLE_AUTHOR);\n  \t}\n\n  \tfunction sendHash(string x) public {\n   \t\tipfsHash = BytesUtils.stringToBytes32(x);\n \t}\n\n \t// was originally a string\n \tfunction getHash() public view returns (bytes32 x) {\n   \t\treturn ipfsHash;\n \t}\n}\n",
  "sourcePath": "/home/fabiola/Documents/Uni/Bachelorarbeit/fakechair3/contracts/Conference.sol",
  "compiler": {
    "name": "solc",
    "version": "0.4.21+commit.dfe3193c.Emscripten.clang"
  },
  "schemaVersion": "2.0.0",
  "updatedAt": "2018-05-11T13:13:04.437Z"
}