{
  "contractName": "ConferenceRegistry",
  "abi": [
    {
      "constant": true,
      "inputs": [
        {
          "name": "",
          "type": "bytes32"
        }
      ],
      "name": "conferenceIndex",
      "outputs": [
        {
          "name": "",
          "type": "uint256"
        }
      ],
      "payable": false,
      "stateMutability": "view",
      "type": "function"
    },
    {
      "constant": true,
      "inputs": [
        {
          "name": "",
          "type": "uint256"
        }
      ],
      "name": "conferences",
      "outputs": [
        {
          "name": "",
          "type": "address"
        }
      ],
      "payable": false,
      "stateMutability": "view",
      "type": "function"
    },
    {
      "anonymous": false,
      "inputs": [
        {
          "indexed": false,
          "name": "title",
          "type": "string"
        },
        {
          "indexed": false,
          "name": "year",
          "type": "uint256"
        },
        {
          "indexed": false,
          "name": "ipfsHash",
          "type": "bytes32"
        }
      ],
      "name": "ConferenceCreated",
      "type": "event"
    },
    {
      "anonymous": false,
      "inputs": [
        {
          "indexed": false,
          "name": "title",
          "type": "string"
        },
        {
          "indexed": false,
          "name": "year",
          "type": "uint256"
        }
      ],
      "name": "ConferenceRemoved",
      "type": "event"
    },
    {
      "constant": true,
      "inputs": [],
      "name": "conferencesLength",
      "outputs": [
        {
          "name": "",
          "type": "uint256"
        }
      ],
      "payable": false,
      "stateMutability": "view",
      "type": "function"
    },
    {
      "constant": true,
      "inputs": [
        {
          "name": "_title",
          "type": "string"
        },
        {
          "name": "_year",
          "type": "uint256"
        }
      ],
      "name": "getConference",
      "outputs": [
        {
          "name": "",
          "type": "address"
        },
        {
          "name": "",
          "type": "bytes32"
        },
        {
          "name": "",
          "type": "bytes32"
        },
        {
          "name": "",
          "type": "uint256"
        },
        {
          "name": "",
          "type": "bytes32"
        }
      ],
      "payable": false,
      "stateMutability": "view",
      "type": "function"
    },
    {
      "constant": false,
      "inputs": [
        {
          "name": "_title",
          "type": "string"
        },
        {
          "name": "_year",
          "type": "uint256"
        },
        {
          "name": "_ipfsHash",
          "type": "bytes32"
        }
      ],
      "name": "create",
      "outputs": [
        {
          "name": "",
          "type": "uint256"
        }
      ],
      "payable": false,
      "stateMutability": "nonpayable",
      "type": "function"
    },
    {
      "constant": false,
      "inputs": [
        {
          "name": "_title",
          "type": "string"
        },
        {
          "name": "_year",
          "type": "uint256"
        }
      ],
      "name": "remove",
      "outputs": [
        {
          "name": "",
          "type": "uint256"
        }
      ],
      "payable": false,
      "stateMutability": "nonpayable",
      "type": "function"
    }
  ],
  "bytecode": "0x6060604052341561000f57600080fd5b6122d18061001e6000396000f3006060604052600436106200007f576000357c0100000000000000000000000000000000000000000000000000000000900463ffffffff1680630b584cb0146200008457806311b245a314620001615780634617e99714620001de5780634fff05ca146200026857806379fe9a9a14620002a65780639667caa8146200030c575b600080fd5b34156200009057600080fd5b620000eb600480803590602001908201803590602001908080601f0160208091040260200160405190810160405280939291908181526020018383808284378201915050505050509190803590602001909190505062000338565b604051808673ffffffffffffffffffffffffffffffffffffffff1673ffffffffffffffffffffffffffffffffffffffff1681526020018560001916600019168152602001846000191660001916815260200183815260200182600019166000191681526020019550505050505060405180910390f35b34156200016d57600080fd5b620001c8600480803590602001908201803590602001908080601f0160208091040260200160405190810160405280939291908181526020018383808284378201915050505050509190803590602001909190505062000715565b6040518082815260200191505060405180910390f35b3415620001ea57600080fd5b62000252600480803590602001908201803590602001908080601f016020809104026020016040519081016040528093929190818152602001838380828437820191505050505050919080359060200190919080356000191690602001909190505062000b6e565b6040518082815260200191505060405180910390f35b34156200027457600080fd5b6200029060048080356000191690602001909190505062000e2e565b6040518082815260200191505060405180910390f35b3415620002b257600080fd5b620002ca600480803590602001909190505062000e46565b604051808273ffffffffffffffffffffffffffffffffffffffff1673ffffffffffffffffffffffffffffffffffffffff16815260200191505060405180910390f35b34156200031857600080fd5b6200032262000e86565b6040518082815260200191505060405180910390f35b6000806000806000806001600060028a8a6040518083805190602001908083835b60208310151562000380578051825260208201915060208101905060208303925062000359565b6001836020036101000a038019825116818451168082178552505050505050905001828152602001925050506020604051808303816000865af11515620003c657600080fd5b50506040518051905060001916600019168152602001908152602001600020549050600081815481101515620003f857fe5b906000526020600020900160009054906101000a900473ffffffffffffffffffffffffffffffffffffffff166000828154811015156200043457fe5b906000526020600020900160009054906101000a900473ffffffffffffffffffffffffffffffffffffffff1673ffffffffffffffffffffffffffffffffffffffff1663af640d0f6040518163ffffffff167c0100000000000000000000000000000000000000000000000000000000028152600401602060405180830381600087803b1515620004c357600080fd5b5af11515620004d157600080fd5b50505060405180519050600083815481101515620004eb57fe5b906000526020600020900160009054906101000a900473ffffffffffffffffffffffffffffffffffffffff1673ffffffffffffffffffffffffffffffffffffffff16634a79d50c6040518163ffffffff167c0100000000000000000000000000000000000000000000000000000000028152600401602060405180830381600087803b15156200057a57600080fd5b5af115156200058857600080fd5b50505060405180519050600084815481101515620005a257fe5b906000526020600020900160009054906101000a900473ffffffffffffffffffffffffffffffffffffffff1673ffffffffffffffffffffffffffffffffffffffff1663f32697166040518163ffffffff167c0100000000000000000000000000000000000000000000000000000000028152600401602060405180830381600087803b15156200063157600080fd5b5af115156200063f57600080fd5b505050604051805190506000858154811015156200065957fe5b906000526020600020900160009054906101000a900473ffffffffffffffffffffffffffffffffffffffff1673ffffffffffffffffffffffffffffffffffffffff1663c623674f6040518163ffffffff167c0100000000000000000000000000000000000000000000000000000000028152600401602060405180830381600087803b1515620006e857600080fd5b5af11515620006f657600080fd5b5050506040518051905095509550955095509550509295509295909350565b60008060008060008060008060028a8a6040518083805190602001908083835b6020831015156200075c578051825260208201915060208101905060208303925062000735565b6001836020036101000a038019825116818451168082178552505050505050905001828152602001925050506020604051808303816000865af11515620007a257600080fd5b505060405180519050600281600019169055506001600060025460001916600019168152602001908152602001600020549650600087111515620007e557600080fd5b620007f18a8a62000338565b809650819750829950839850849a5050505050508573ffffffffffffffffffffffffffffffffffffffff1663217fe6c6336040518263ffffffff167c0100000000000000000000000000000000000000000000000000000000028152600401808273ffffffffffffffffffffffffffffffffffffffff1673ffffffffffffffffffffffffffffffffffffffff16815260200180602001828103825260058152602001807f61646d696e00000000000000000000000000000000000000000000000000000081525060200192505050602060405180830381600087803b1515620008d957600080fd5b5af11515620008e757600080fd5b505050604051805190501515620008fd57600080fd5b600060016000600254600019166000191681526020019081526020016000208190555060006001600080549050038154811015156200093857fe5b906000526020600020900160009054906101000a900473ffffffffffffffffffffffffffffffffffffffff1673ffffffffffffffffffffffffffffffffffffffff1663af640d0f6040518163ffffffff167c0100000000000000000000000000000000000000000000000000000000028152600401602060405180830381600087803b1515620009c757600080fd5b5af11515620009d557600080fd5b50505060405180519050905060008080549050815481101515620009f557fe5b906000526020600020900160009054906101000a900473ffffffffffffffffffffffffffffffffffffffff1660008881548110151562000a3157fe5b906000526020600020900160006101000a81548173ffffffffffffffffffffffffffffffffffffffff021916908373ffffffffffffffffffffffffffffffffffffffff160217905550600080548091906001900362000a91919062000e92565b5086600160008360001916600019168152602001908152602001600020819055507f60c486feadd46e315fd071fb2d4221f16f86986fe507f155304c12234da7a68a8a8a6040518080602001838152602001828103825284818151815260200191508051906020019080838360005b8381101562000b1d57808201518184015260208101905062000b00565b50505050905090810190601f16801562000b4b5780820380516001836020036101000a031916815260200191505b50935050505060405180910390a160008054905097505050505050505092915050565b6000600284846040518083805190602001908083835b60208310151562000bab578051825260208201915060208101905060208303925062000b84565b6001836020036101000a038019825116818451168082178552505050505050905001828152602001925050506020604051808303816000865af1151562000bf157600080fd5b50506040518051905060028160001916905550600060016000600254600019166000191681526020019081526020016000205414151562000c3157600080fd5b6000805490506001600060025460001916600019168152602001908152602001600020819055506000805480600101828162000c6e919062000ec1565b9160005260206000209001600086868662000c8862000ef0565b80806020018481526020018360001916600019168152602001828103825285818151815260200191508051906020019080838360005b8381101562000cdb57808201518184015260208101905062000cbe565b50505050905090810190601f16801562000d095780820380516001836020036101000a031916815260200191505b50945050505050604051809103906000f080151562000d2757600080fd5b909190916101000a81548173ffffffffffffffffffffffffffffffffffffffff021916908373ffffffffffffffffffffffffffffffffffffffff160217905550507f1603a023afbe7bdbf11c37c16baa6e3ba492026f2fac9d397d9340044c60221e84848460405180806020018481526020018360001916600019168152602001828103825285818151815260200191508051906020019080838360005b8381101562000de257808201518184015260208101905062000dc5565b50505050905090810190601f16801562000e105780820380516001836020036101000a031916815260200191505b5094505050505060405180910390a160008054905090509392505050565b60016020528060005260406000206000915090505481565b60008181548110151562000e5657fe5b90600052602060002090016000915054906101000a900473ffffffffffffffffffffffffffffffffffffffff1681565b60008080549050905090565b81548183558181151162000ebc5781836000526020600020918201910162000ebb919062000f01565b5b505050565b81548183558181151162000eeb5781836000526020600020918201910162000eea919062000f01565b5b505050565b60405161137c8062000f2a83390190565b62000f2691905b8082111562000f2257600081600090555060010162000f08565b5090565b905600606060405234156200001057600080fd5b6040516200137c3803806200137c8339810160405280805182019190602001805190602001909190805190602001909190505062000098336040805190810160405280600581526020017f61646d696e000000000000000000000000000000000000000000000000000000815250620001d76401000000000262000d0a176401000000009004565b6020835111151515620000aa57600080fd5b620000ff336040805190810160405280600581526020017f61646d696e000000000000000000000000000000000000000000000000000000815250620001d76401000000000262000d0a176401000000009004565b600283836040518083805190602001908083835b6020831015156200013a578051825260208201915060208101905060208303925062000113565b6001836020036101000a038019825116818451168082178552505050505050905001828152602001925050506020604051808303816000865af115156200018057600080fd5b5050604051805190506001816000191690555081600481905550620001b9836200033d6401000000000262000e5b176401000000009004565b600281600019169055508060038160001916905550505050620003e4565b62000266826000836040518082805190602001908083835b602083101515620002165780518252602082019150602081019050602083039250620001ef565b6001836020036101000a0380198251168184511680821785525050505050509050019150509081526020016040518091039020620003726401000000000262000eea179091906401000000009004565b7fbfec83d64eaa953f2708271a023ab9ee82057f8f3578d548c1a4ba0b5b7004898282604051808373ffffffffffffffffffffffffffffffffffffffff1673ffffffffffffffffffffffffffffffffffffffff16815260200180602001828103825283818151815260200191508051906020019080838360005b83811015620002fd578082015181840152602081019050620002e0565b50505050905090810190601f1680156200032b5780820380516001836020036101000a031916815260200191505b50935050505060405180910390a15050565b600062000349620003d0565b8290506000815114156200036457600060010291506200036c565b602083015191505b50919050565b60018260000160008373ffffffffffffffffffffffffffffffffffffffff1673ffffffffffffffffffffffffffffffffffffffff16815260200190815260200160002060006101000a81548160ff0219169083151502179055505050565b602060405190810160405280600081525090565b610f8880620003f46000396000f3006060604052600436106100db576000357c0100000000000000000000000000000000000000000000000000000000900463ffffffff1680630988ca8c146100e057806315daaa571461015c578063217fe6c6146101955780634a79d50c1461022957806388cee87e1461025a578063af640d0f146102d6578063b25fa92c14610307578063b361a96b14610383578063c623674f146103dd578063d13319c41461040e578063d391014b1461043f578063dfb29935146104cd578063e97193a61461052a578063edad490e14610563578063f3269716146105bd575b600080fd5b34156100eb57600080fd5b61015a600480803573ffffffffffffffffffffffffffffffffffffffff1690602001909190803590602001908201803590602001908080601f016020809104026020016040519081016040528093929190818152602001838380828437820191505050505050919050506105e6565b005b341561016757600080fd5b610193600480803573ffffffffffffffffffffffffffffffffffffffff16906020019091905050610667565b005b34156101a057600080fd5b61020f600480803573ffffffffffffffffffffffffffffffffffffffff1690602001909190803590602001908201803590602001908080601f01602080910402602001604051908101604052809392919081815260200183838082843782019150505050505091905050610727565b604051808215151515815260200191505060405180910390f35b341561023457600080fd5b61023c6107ae565b60405180826000191660001916815260200191505060405180910390f35b341561026557600080fd5b6102d4600480803573ffffffffffffffffffffffffffffffffffffffff1690602001909190803590602001908201803590602001908080601f016020809104026020016040519081016040528093929190818152602001838380828437820191505050505050919050506107b4565b005b34156102e157600080fd5b6102e9610801565b60405180826000191660001916815260200191505060405180910390f35b341561031257600080fd5b610381600480803573ffffffffffffffffffffffffffffffffffffffff1690602001909190803590602001908201803590602001908080601f01602080910402602001604051908101604052809392919081815260200183838082843782019150505050505091905050610807565b005b341561038e57600080fd5b6103db600480803590602001908201803590602001908080602002602001604051908101604052809392919081815260200183836020028082843782019150505050505091905050610854565b005b34156103e857600080fd5b6103f06108ca565b60405180826000191660001916815260200191505060405180910390f35b341561041957600080fd5b6104216108d0565b60405180826000191660001916815260200191505060405180910390f35b341561044a57600080fd5b6104526108da565b6040518080602001828103825283818151815260200191508051906020019080838360005b83811015610492578082015181840152602081019050610477565b50505050905090810190601f1680156104bf5780820380516001836020036101000a031916815260200191505b509250505060405180910390f35b34156104d857600080fd5b610528600480803590602001908201803590602001908080601f01602080910402602001604051908101604052809392919081815260200183838082843782019150505050505091905050610913565b005b341561053557600080fd5b610561600480803573ffffffffffffffffffffffffffffffffffffffff16906020019091905050610929565b005b341561056e57600080fd5b6105bb600480803590602001908201803590602001908080602002602001604051908101604052809392919081815260200183836020028082843782019150505050505091905050610a3a565b005b34156105c857600080fd5b6105d0610b41565b6040518082815260200191505060405180910390f35b610663826000836040518082805190602001908083835b60208310151561062257805182526020820191506020810190506020830392506105fd565b6001836020036101000a0380198251168184511680821785525050505050509050019150509081526020016040518091039020610b4790919063ffffffff16565b5050565b6106a6336040805190810160405280600581526020017f61646d696e0000000000000000000000000000000000000000000000000000008152506105e6565b6106e5816040805190810160405280600881526020017f70636d656d6265720000000000000000000000000000000000000000000000008152506105e6565b610724816040805190810160405280600881526020017f70636d656d626572000000000000000000000000000000000000000000000000815250610b60565b50565b60006107a6836000846040518082805190602001908083835b6020831015156107655780518252602082019150602081019050602083039250610740565b6001836020036101000a0380198251168184511680821785525050505050509050019150509081526020016040518091039020610cb190919063ffffffff16565b905092915050565b60025481565b6107f3336040805190810160405280600581526020017f61646d696e0000000000000000000000000000000000000000000000000000008152506105e6565b6107fd8282610b60565b5050565b60015481565b610846336040805190810160405280600581526020017f61646d696e0000000000000000000000000000000000000000000000000000008152506105e6565b6108508282610d0a565b5050565b60008090505b81518110156108c6576108b9828281518110151561087457fe5b906020019060200201516040805190810160405280600881526020017f70636d656d626572000000000000000000000000000000000000000000000000815250610807565b808060010191505061085a565b5050565b60035481565b6000600354905090565b6040805190810160405280600581526020017f61646d696e00000000000000000000000000000000000000000000000000000081525081565b61091c81610e5b565b6003816000191690555050565b610968336040805190810160405280600581526020017f61646d696e000000000000000000000000000000000000000000000000000000815250610727565b806109ae57506109ad336040805190810160405280600881526020017f70636d656d626572000000000000000000000000000000000000000000000000815250610727565b5b15156109b957600080fd5b6109f8816040805190810160405280600681526020017f617574686f7200000000000000000000000000000000000000000000000000008152506105e6565b610a37816040805190810160405280600681526020017f617574686f720000000000000000000000000000000000000000000000000000815250610b60565b50565b6000610a7b336040805190810160405280600581526020017f61646d696e000000000000000000000000000000000000000000000000000000815250610727565b80610ac15750610ac0336040805190810160405280600881526020017f70636d656d626572000000000000000000000000000000000000000000000000815250610727565b5b1515610acc57600080fd5b600090505b8151811015610b3d57610b308282815181101515610aeb57fe5b906020019060200201516040805190810160405280600681526020017f617574686f720000000000000000000000000000000000000000000000000000815250610d0a565b8080600101915050610ad1565b5050565b60045481565b610b518282610cb1565b1515610b5c57600080fd5b5050565b610bdd826000836040518082805190602001908083835b602083101515610b9c5780518252602082019150602081019050602083039250610b77565b6001836020036101000a0380198251168184511680821785525050505050509050019150509081526020016040518091039020610e8c90919063ffffffff16565b7fd211483f91fc6eff862467f8de606587a30c8fc9981056f051b897a418df803a8282604051808373ffffffffffffffffffffffffffffffffffffffff1673ffffffffffffffffffffffffffffffffffffffff16815260200180602001828103825283818151815260200191508051906020019080838360005b83811015610c72578082015181840152602081019050610c57565b50505050905090810190601f168015610c9f5780820380516001836020036101000a031916815260200191505b50935050505060405180910390a15050565b60008260000160008373ffffffffffffffffffffffffffffffffffffffff1673ffffffffffffffffffffffffffffffffffffffff16815260200190815260200160002060009054906101000a900460ff16905092915050565b610d87826000836040518082805190602001908083835b602083101515610d465780518252602082019150602081019050602083039250610d21565b6001836020036101000a0380198251168184511680821785525050505050509050019150509081526020016040518091039020610eea90919063ffffffff16565b7fbfec83d64eaa953f2708271a023ab9ee82057f8f3578d548c1a4ba0b5b7004898282604051808373ffffffffffffffffffffffffffffffffffffffff1673ffffffffffffffffffffffffffffffffffffffff16815260200180602001828103825283818151815260200191508051906020019080838360005b83811015610e1c578082015181840152602081019050610e01565b50505050905090810190601f168015610e495780820380516001836020036101000a031916815260200191505b50935050505060405180910390a15050565b6000610e65610f48565b829050600081511415610e7e5760006001029150610e86565b602083015191505b50919050565b60008260000160008373ffffffffffffffffffffffffffffffffffffffff1673ffffffffffffffffffffffffffffffffffffffff16815260200190815260200160002060006101000a81548160ff0219169083151502179055505050565b60018260000160008373ffffffffffffffffffffffffffffffffffffffff1673ffffffffffffffffffffffffffffffffffffffff16815260200190815260200160002060006101000a81548160ff0219169083151502179055505050565b6020604051908101604052806000815250905600a165627a7a72305820d0950609a077ff9eab00d0b1613e854d57c764eb2c78dd27bec4f50c080288b80029a165627a7a723058201692b81ea4032a7cd9b39d9cddd72ac5d712c77eb967cc370db1d26737171a640029",
  "source": "pragma solidity ^0.4.21;\n\nimport \"./Conference.sol\";\nimport \"./utils/BytesUtils.sol\";\n\n// in mapping 0 is part of indexes!!!\n// first conference created receives index 0 \n\n/**\n * @title ConferenceRegistry\n * @dev Manages available conferences. Adds, gets, removes conferences. \n */\ncontract ConferenceRegistry{\n\n  \t/**\n  \t * Events\n  \t */\n\n  \tevent ConferenceCreated(string title, uint year, bytes32 ipfsHash);\n  \tevent ConferenceRemoved(string title, uint year);\n\n  \t/**\n  \t * Storage\n  \t */\n  \t\n  \tConference[] public conferences;\n  \t// Maps unique Id to index in conference array\n  \tmapping(bytes32 => uint) public conferenceIndex;\n  \tbytes32 tempId;\n\n  \t/**\n  \t * Public functions\n  \t */\n\n\tfunction conferencesLength() public constant returns (uint) {\n\t    return conferences.length;\n\t}\n\n\t/**\n\t * @dev Uses unique id (SHA-256 of title and year) to lookup conference\n\t * @dev in storage.\n\t * @param  _title string, conference title\n\t * @param  _year uint, conference year\n\t * @return Conference, bytes32, bytes32, uint, bytes32 . Conference, Id, title, year, IpsfHash\n\t */\n\tfunction getConference(string _title, uint _year) public constant \n\t\treturns (Conference, bytes32, bytes32, uint, bytes32){\n\n\t    uint _index = conferenceIndex[sha256(_title,_year)];\n\n\t    return (\n\t\t      conferences[_index],\n\t\t      conferences[_index].id(),\n\t\t      conferences[_index].title(),\n\t\t      conferences[_index].year(),\n\t\t      conferences[_index].ipfsHash()\n\t\t);\n\t}\n\n\n\t/** \n\t * @dev Creates a new conference with SHA-256 Id, adds it to storage, adds index in \n\t * @dev conferenceIndex mapping and emits \"ConferenceCreated\" event.\n\t * @dev requires SHA-256 of title and year to be unique!\n\t * \n\t * @param  _title string, required length <= 32 chars\n\t * @param  _year uint\n\t * @param  _ipfsHash bytes32 \n\t * @return conferences.length uint (number of conferences)\n\t */\n\tfunction create(string _title, uint _year, bytes32 _ipfsHash) public returns (uint) {\n\n\t\ttempId = sha256(_title, _year);\n\t\trequire(conferenceIndex[tempId] == 0); // empty mapping is initialized to 0\n\n\t\t// If unique, store index and push it to storage\n\t  \tconferenceIndex[tempId] = conferences.length;\n\t\tconferences.push(new Conference(_title, _year, _ipfsHash));\n\n\t    emit ConferenceCreated(_title, _year, _ipfsHash);\n\t    return conferences.length;\n\t}\n\n\t// does not work yet\n\t/**\n\t * @dev remove a conference using (title, year) as identifier. Remove\n\t * @dev the entry from storage array, update the array and fill the empty gap\n\t * @dev with the last array entry. Update the Id -> Index mapping. Emit \n\t * @dev 'ConferenceRemoved' event.\n\t * \n\t * @param  _title title of the conference to remove\n\t * @param  _year year of the conference to remove\n\t * @return conferences.length amount of conferences available\n\t */\n\tfunction remove(string _title, uint _year) public returns (uint)\n\t  {\n\t    tempId = sha256(_title,_year);\n\t    uint removedIndex = conferenceIndex[tempId];\n\t    require(removedIndex > 0); // Conference needs to exist to be removed!\n\n\t    Conference conf;\n\t    bytes32 title;\n\t    bytes32 id;\n\t    uint year;\n\t    bytes32 ipsfHash;\n\n\n\n\t    (conf, id, title, year, ipsfHash) = getConference(_title, _year);\n\t    require(conf.hasRole(msg.sender, 'admin')); // Only admin can remove conference\n\n\t    // remove conference from mapping\n\t    conferenceIndex[tempId] = 0;\n\n\t    // Remove conference from storage\n\t    // To fill the gap: put last entry in place\n\t    bytes32 lastId = conferences[conferences.length - 1].id();\n\n\t    // Overwrite place in storage array \n\t    conferences[removedIndex] = conferences[conferences.length];\n\t    conferences.length--;\n\t    // Update Mapping\n\t    conferenceIndex[lastId] = removedIndex;\n\n\t    emit ConferenceRemoved(_title, _year);\n\t    return conferences.length;\n\t}\n\n\n\n}\n",
  "sourcePath": "/home/fabiola/Documents/Uni/Bachelorarbeit/fakechair3/contracts/ConferenceRegistry.sol",
  "compiler": {
    "name": "solc",
    "version": "0.4.21+commit.dfe3193c.Emscripten.clang"
  },
  "schemaVersion": "2.0.0",
  "updatedAt": "2018-05-11T13:13:04.408Z"
}